:020000040200F8
:1020000000020020BD30000205310002073100024D
:10201000093100020B3100020D3100020000000006
:102020000000000000000000000000000F3100026E
:1020300011310002000000001331000215310002CE
:102040001731000217310002173100021731000268
:102050001731000217310002173100021731000258
:102060001731000217310002173100021731000248
:102070001731000217310002173100021731000238
:102080001731000217310002173100021731000228
:102090001731000217310002173100021731000218
:1020A0001731000217310002173100021731000208
:1020B00017310002173100021731000217310002F8
:1020C00017310002173100021731000214000341DA
:1020D00000500002F4200002FFFFFFFFFFFFFFFFA0
:1020E000FFFFFFFFFFFFFFFFFFFFFFFFFFFFFFFF00
:1020F000FFFFFFFFAD3A0002793700020000000049
:10210000453B00020000000000000000000000004D
:10211000E5350002000000000000000000000000A3
:102120000000000000000000FFFFFFFFFFFFFFFFB7
:10213000FFFFFFFFFFFFFFFFFFFFFFFFFFFFFFFFAF
:10214000FFFFFFFFFFFFFFFFFFFFFFFFFFFFFFFF9F
:10215000FFFFFFFFFFFFFFFFFFFFFFFFFFFFFFFF8F
:10216000FFFFFFFFFFFFFFFFFFFFFFFFFFFFFFFF7F
:1030000000200002DFF810D000F092F800480047DE
:103010005D400002AFF300800002002010B5014CBB
:10302000204700BF01AB02002DE9FE5F0746EFF32A
:103030001080EFF31181EFF31282EFF313830FB4DB
:1030400043F6C850C2F20000144D0560EFF308814A
:10305000EFF30982EFF31483EFF30384416082609E
:10306000C3600461B81E02DA00F0D6F80FE00C4825
:103070000168BA1E0CBF21F0805141F0805141F02F
:10308000804101600748016841F00C01016042F293
:10309000F510C0F200000047004D28476D220000E7
:1030A000000711408400104010B545F2ED40004784
:1030B00000BF000040BA7047C0BA704716480168A8
:1030C00041F0020101601548016841F4806101602E
:1030D000134B0121586DC0F303305A6DC2F3033214
:1030E0009042F5D1491C0329F7DB0228F0DB0D4B98
:1030F00018680028ECD00C4B186840F48030186039
:103100000A480047FEE7FEE7FEE7FEE7FEE7FEE7C8
:10311000FEE7FEE7FEE7FEE7080000401C00004077
:103120000000104000001140440000403131000216
:10313000064C074D06E0E06840F0010394E8070004
:1031400098471034AC42F6D3FFF760FF3C450002CD
:103150006C4500022DE9F05F0546002092469B4633
:1031600088460646814640241BE02846414647469D
:10317000224600F041F853465A46C01A914110D3F6
:1031800011461846224600F028F82D1A67EB010870
:103190004F4622460120002100F01FF817EB0009DE
:1031A0004E41201EA4F10104DFDC484631462A4688
:1031B0004346BDE8F09F40EA01039B0703D009E0C6
:1031C00008C9121F08C0042AFAD203E011F8013B13
:1031D00000F8013B521EF9D27047202A04DB203A46
:1031E00000FA02F1002070479140C2F1200320FA5A
:1031F00003F3194390407047202A04DB203A21FA58
:1032000002F00021704721FA02F3D040C2F12002FF
:10321000914008431946704744F2210CC0F2020C59
:10322000604749F6AD6CC0F2020C604744F2994C1D
:10323000C0F2020C60474DF66B2CC0F2010C6047E7
:1032400048F2B90CC0F2010C60474FF27D6CC0F23D
:10325000010C60474DF2750CC0F2010C604744F65A
:10326000C91CC0F2020C604749F6397CC0F2020C5E
:10327000604749F6E11CC0F2020C604749F6A50C14
:10328000C0F2020C604749F6C17CC0F2020C6047F4
:1032900049F6797CC0F2020C604749F6251CC0F261
:1032A000020C604747F2756CC0F2000C604747F2B1
:1032B0008D6CC0F2000C60474CF2A10CC0F2010C06
:1032C00060474BF2BD3CC0F2010C604747F2D56C41
:1032D000C0F2000C604749F2417CC0F2020C60472A
:1032E0004AF24D2CC0F2020C604749F6917CC0F2C4
:1032F000020C604744F6393CC0F2020C604747F2CA
:10330000B17CC0F2000C604742F2AB1CC0F2000C72
:10331000604746F2B15CC0F2020C60474CF20D4CC3
:10332000C0F2010C604742F22D1CC0F2020C604753
:1033300048F6E54CC0F2000C604748F6FD6CC0F260
:10334000000C604748F6157CC0F2000C604748F658
:10335000857CC0F2000C604749F2FD0CC0F2000C05
:10336000604745F2F12CC0F2020C60474BF6112C7D
:10337000C0F2000C604745F2250CC0F2020C604719
:1033800044F6956CC0F2000C604744F6A96CC0F29C
:10339000000C604745F2C15CC0F2000C60474AF285
:1033A000793CC0F2020C6047C906090E002806DA13
:1033B00000F00F0000F1E02080F8141D704700F1CC
:1033C000E02080F8001470472DE9FF5F05460E46A7
:1033D000914605F03F05F6B209F03F0900F09EF86E
:1033E0003949B0FBF1F0B0FBF5F0039003980228E7
:1033F00003D2012004B0BDE8F09F00F08FF8A0FBDD
:1034000006700146304A00233846FFF7A3FE2A46DD
:103410000023CDE90001FFF79DFE04464FF0000BAD
:10342000B4F5E67F05D3B4F5167F02D84FF0070B4D
:1034300031E0B4F5BE7F05D3B4F5027F02D84FF07A
:10344000060B28E0B4F5967F05D3B4F5DC7F02D8EF
:103450004FF0050B1FE0DC2C05D3B4F5B47F02D888
:103460004FF0040B17E0A02C05D3B4F58C7F02D8E5
:103470004FF0030B0FE0642C04D3C82C02D84FF09C
:10348000020B08E03C2C04D3782C02D84FF0010B3F
:1034900001E00220AEE70D4802900C482838D0F831
:1034A00028A00B480AEA000A680040EAC61040EA71
:1034B000C93040EA4B5040EA0A0A04482838C0F8AC
:1034C00028A0002096E7000040420F00282010406E
:1034D000010000FF10B513220021024800F0B4FEE5
:1034E00010BD00003C20104070B504460A48806AB8
:1034F00000F00105002221460748283000F0B2FE06
:1035000045B93CB100BF4FF08040006C00F08040F6
:103510000028F8D070BD0000002010400448006969
:10352000C0F3002109B10348704703480068FBE776
:103530000020104000366E011044002010B50446F3
:10354000012C0EDB1823042221460C4800F098FEC3
:103550001D220121094800F085FE012000F0ECFB4E
:1035600002E0002000F0E8FB0CB1012000E00020A8
:1035700001461F22014800F075FE10BD18201040C2
:1035800010B50446012C0EDB1423042221460C48FE
:1035900000F076FE1C220121094800F063FE0120A4
:1035A00000F0D4FB02E0002000F0D0FB0CB10120C1
:1035B00000E0002001461E22014800F053FE10BD2D
:1035C0001820104002E008C8121F08C1002AFAD1D2
:1035D00070477047002001E001C1121F002AFBD193
:1035E0007047000010B5FFF71CFE022809D10748FC
:1035F000016841F003010160016D48F2445211433A
:103600000165BDE81040FFF74FBD0000000011400C
:103610002DE9F0471B4D824699462C6B0E4690468D
:103620000F7A10461035FFF701FE042F21D1022832
:103630001FD17089A98B88421BD9401A87B20025F7
:1036400015E0207A10F02E0F0FD1207900F00F0036
:1036500005280AD3072804D12046FFF7ECFD800790
:1036600003D4A06840F00800A06024686D1CBD422F
:10367000E7DB4B46424631465046BDE8F047FFF790
:10368000DFBD0000F83A00202DE9FF5FDFF8E09091
:10369000C2F3072792469B460E4659F8274091F8F9
:1036A00008805046FFF7C2FD054640464FF000082F
:1036B000012819D1C4B131682068814214D1616AEE
:1036C00049B140B1497D31B990F8271021F0070187
:1036D000C91C80F827107068E16E884204D15046FA
:1036E000FFF7A4FD022814D05B46524631460098ED
:1036F000FFF7ABFD064659F82700B0B3406AA0B308
:103700005046FFF793FD854227D01A49022D06D077
:1037100014E00020C4F86C8004B0BDE8F09F91F87C
:10372000962081F8972002EB820505EB421201EB0F
:10373000420282F80280012281F8982001280CD1EF
:10374000887891F84C10084307D00020FFF782FDDD
:1037500018B902215046FFF782FD5046FFF766FD7B
:10376000022802D1204600F087FE3046D4E7000050
:1037700000030020804700202DE9F84F00264FF07D
:10378000010BFFF74EFDDFF8FC820546B246D8F884
:10379000101041F02001C8F81010BB4C022802D0D4
:1037A000062D7CD106E0B948D0F81403C00701D13A
:1037B000FFF75AFD94F82700C00603D5022D01D16A
:1037C000FFF757FDFFF75AFD002877D0206A400821
:1037D00074D194F82700800770D5DFF8B492E168BF
:1037E000D9F80000814269D300210120FFF74BFD89
:1037F000064694F82700C00760D1A768D9F80020D2
:1038000097425BD3B10759D0022D03D0062D01D1C9
:103810004FF0010A9F49E3680988591AB94206D254
:10382000D8F810300F4623F02003C8F81030974224
:1038300044D9B81AA169FFF72BFD814606283DD36C
:10384000FFF72BFD944800BFD0F888100029FBD16A
:10385000D0F888100029FBD1A9F10101C8F80410A3
:1038600050F8841F41F480710160016821F40071F7
:103870000160022D18D186480068874214D9B0072C
:1038800012D5FFF70FFD78B1D8F8101041F40051B0
:10389000C8F81010D8F8101041F4805100E00DE085
:1038A000C8F81010022006E0D8F8101021F480515A
:1038B000C8F81010012084F8260067E094F826006C
:1038C000F0BB022D7ED194F82700C00702D1A0687A
:1038D000401C77D0700775D5FFF7E9FC88B3A06866
:1038E00008B9FFF7E9FCE168814200D2084668495F
:1038F0000968884247D9451A45D064492A46D1F813
:103900000C01654F3843001F3DD00969C9B1002340
:1039100000F044FBA8B1032084F82600FFF7D1FC97
:10392000C4E90001D8F8101041F02001C8F81010C7
:103930004FF0030A2846A169FFF7AAFC054601E0FB
:1039400024E020E0052800D20525FFF7A6FC00BFF3
:10395000D7F888000028FBD1D7F888000028FBD1D1
:10396000C8F8045057F8840F40F480703860002085
:1039700000F062FC012000F05FFC4FF08040C16964
:1039800021F48061C16194F82600D8B1FFF79EFC54
:10399000DFF80891D9F80000414DA8603F48183081
:1039A0000068E8604FF0E0200169296141696961C0
:1039B0008069A861D8F81800474640F40020C8F88C
:1039C000180000E026E0FFF786FC5046FFF72CFBCE
:1039D0003448016841F002010160B869C11494F8EB
:1039E0002700491C61F3820084F82700B96921F49B
:1039F0000021B961410714D5AA68C9F800202749F8
:103A0000EA6818310A6040F020004FF0000B84F89B
:103A1000270010E094F82700C0F34000FFF760FC97
:103A200009E0FFF7FEFB022805D11B4850F8841F70
:103A300021F4806101606EB18DF800B094F8260029
:103A4000401E8DF80100584600F026FB6946002014
:103A5000FFF74BFC94F82600002811D0FFF7E1FB9C
:103A6000022801D00628F9D1FFF7DBFB062807D191
:103A7000094850F8841F41F4806101600A480068D9
:103A8000BDE8F88F00201040D00200200000114057
:103A9000CC020020C80200200000104008ED00E029
:103AA000A83D0020000014400000124070B5214CD9
:103AB0000546002084F8260094F8270020F0200016
:103AC00084F827001C48416E41F0800141661B4884
:103AD000016941F400610161FFF7A3FB022808D1ED
:103AE0001748D0F81403C00703D0062D03D90625C4
:103AF00003E0FFF7B9FB032D01D9AD1E00E000255F
:103B00004FF474706843E060FFF7F4FBE1688142B2
:103B100000D9E060FFF7F3FBA06094F8271021F0D4
:103B2000010184F8271018B941F0010084F827003A
:103B3000284670BDD0020020000010400020104038
:103B4000000011404FF44873024A00210248FFF779
:103B5000DBBB00002C4400201D300002014890F81F
:103B60009700704780470020022816D200EB8002A1
:103B700002EB4012094800EB4202917001880029D3
:103B80000BD0B0F84A20B2FBF1F111F0FF0180F840
:103B9000941002D1012180F89410704780470020D2
:103BA0000A4602280AD200EB800101EB40100449CA
:103BB00001EB40011046C91CFFF7ABBB704700008A
:103BC0008047002002280ED21F2A00DD1F2200EBB2
:103BD000800303EB40130448D2B200EB430042726F
:103BE0000A30FFF7E8BA704780470020022806D263
:103BF00000EB800202EB4010014A22F810107047DF
:103C00008047002002280FD21F2A00DD1F2200EB70
:103C1000800303EB40130548D2B200EB430080F869
:103C200029202A30FFF7C7BA7047000080470020DC
:103C30002DE9FC4705461F480F46002680F89610E0
:103C400001EB870101EB471100EB410AEC680AF137
:103C5000090994B109EB461898F800201F2A0CD8DE
:103C600008F1010104F10C00FFF7A5FA98F8000033
:103C7000A188801D60F30B11A1802468761C022EA0
:103C8000E7DB2868001D3FB102B00AF10301BDE87F
:103C9000F0470122FFF742BB696A05F134034A7B12
:103CA000CDE9002301F10E030A7B0349FFF73BFB3B
:103CB000BDE8FC8780470020AC3B00202DE9F05F89
:103CC000984614460D4682460F461646DDF828B043
:103CD00014E0281900EBD070401081465946424646
:103CE0009047824503D11FFA89F0BDE8F09F504507
:103CF00002D909F1010501E0A9F10104A542E8DDBD
:103D0000BC4200DA3C46B54200DD35465946204605
:103D100042469047504501D3A0B2E6E759462846AF
:103D200042469047A8B2E0E700204FF4FA5100BFA6
:103D3000401C8842FBDB704710B504460E2221462A
:103D4000014800F08FFA10BD1C20104010B5044649
:103D50000D222146014800F085FA10BD1C201040BC
:103D600070B50C460546FFF71BFF21462846BDE807
:103D70007040FFF7DDBA70B514460D460A46064698
:103D80002146FFF71FFF224629463046BDE8704016
:103D9000FFF7D3BA2DE9F04116460D00074601D0D2
:103DA000002411E001460020FFF7DEFE3946012025
:103DB000FFF7DAFE0AE000BF04EB4400394616F8CC
:103DC0001000FFF7D1FE641CAC42F5DB32462946F9
:103DD0003846BDE8F041FFF7B5BA2DE9FF4F8BB08B
:103DE0001C461CABA1B293E8E00F0B98FFF7FEFE58
:103DF00007A80DF12C0C80E8000F03A81B9B80E89E
:103E0000E80018AB93E807008DE807009CE807007E
:103E10002346FFF79CFA0FB0BDE8F08F70B514464B
:103E20000D460A4606462146FFF7ECFE2246294685
:103E30003046BDE87040FFF78FBA000010B5044669
:103E4000FFF772FF0349A0B288470348BDE810405E
:103E50000047000001540200E19F020010B5044633
:103E60000E48016869B1416879B1816889B14FF440
:103E7000B3710BA0FFF775FA2046BDE81040FFF7BD
:103E800075BA61680160094806E0616841600848E8
:103E900002E06168816007486060EDE7204400202F
:103EA000726F6D5F70617463682E6300F940000289
:103EB0000D410002214100020B480168C90711D1E0
:103EC0004FEA010200EB81039A60491C0829F9DBE3
:103ED000064941600649C1610649016206494162DD
:103EE0000321016070470000002000E060470020CF
:103EF000E9380100D9E70200B5EF020010B500244F
:103F0000062160B2FFF750FA641CE4B2232CF7D903
:103F100006210846FFF748FA06210720FFF744FA72
:103F200006212120FFF740FA0621BDE810401620A7
:103F3000FFF73ABA084810B590F8981019B1002167
:103F400080F8981004E00020FFF770F9022801D0F3
:103F5000002010BD012010BD804700200C4941EA1F
:103F600000710C48416141696FEA9141890701D1B3
:103F70008104C162016841F0805101600648416DD1
:103F80008907FCD4416841F4FE2141605920004773
:103F90000010240500201040000010402DE9F041E1
:103FA0002949164698464D6CC179C1F3840101290F
:103FB00044D1EDB3254AA96A914202D0244A9142E4
:103FC0003CD1244B002100BF53F8212012B11468CA
:103FD000844203D0491C0229F6DB2FE002292DDAA6
:103FE000506A00282BD0D1681B4F8988387FC1F3D5
:103FF0000711C900800001F58B71814201D90C1AAB
:1040000000E00024FFF75DF9D5E902C300221CEBB4
:1040100004045341251A73EB01050FD38019BD8B9E
:1040200041EB0801C5F307254FF47A76754300E0AC
:1040300004E02C195A41001B914102D20020BDE836
:10404000F0810120FBE70000503D0020B91A02007A
:10405000FD1A020000030020D002002010B501224A
:1040600050210520FFF7B0F90120FFF73DFA0520A8
:10407000FFF764FA0320FFF783FAFFF72BFA012119
:10408000052000F057F80021042000F053F8032029
:10409000FFF764FF002010BD002806D1034890F808
:1040A0002C03C00701D0FFF707BF70472044002052
:1040B0002DE9F04706461078089D98461446894633
:1040C000042E0DD13E280BD1A078122808D1E71C70
:1040D0002079FFF72FFF00280CD1FFF73FFD787004
:1040E000002D07D04346224649463046AC46BDE83F
:1040F000F0476047BDE8F08738B5034C246800946A
:10410000FFF7D6FF38BD00002044002038B5034C2F
:1041100064680094FFF7CCFF38BD00002044002005
:1041200038B5034CA4680094FFF7C2FF38BD000007
:1041300020440020152801D0FFF71DB90248018056
:10414000080C00F0AFB80000C8020020004870471B
:10415000CC200002704710B5FFF7D0FEBDE810403C
:1041600040F27D7000F09EB80649012081F82C03D2
:10417000064805494161064981610649C161FFF769
:104180009BBE0000204400200C0F00BF60470020B1
:1041900011360002893600024FF40040AFF3008070
:1041A00038B50246002317480F21FEF7D3FF054616
:1041B0001548022201680B2000F03EF94FF4007010
:1041C0000090124B0F2200212846FFF777FD04468E
:1041D00000900F4B40F2FF3200212846FFF76EFDA2
:1041E00044EA001084B2FFF79FFD0A492046884741
:1041F0000948804701462246092000F01DF9204663
:1042000038BD000000004042CC200002694400029A
:104210007144000201540200E19F020070B5054C98
:1042200065692B0D1B0543F48053636100F044F86E
:10423000656170BD0020104002490A6D60F34D3287
:104240000A6570470000114010B529B103680124C8
:1042500094402343036004E0036801249440A34393
:10426000036010BD10B529B10368012494402343B5
:10427000036004E0036801249440A343036010BD7D
:1042800070B5012595406D1E05FA03F40125954092
:104290006D1E29400568A54301FA03F63543056004
:1042A00070BD0000034AD1696FF30F010143D16172
:1042B00070470000D00200202DE9F047170081462A
:1042C0004FF0000617D0DFF858C1CB1900204FF08F
:1042D00000520CF106055B1E35F8104014448C4268
:1042E00004D9934202D31CF800201643401CC0B2EC
:1042F00022460528F0D3DFF82CA19AF82700000702
:1043000001D530077ED1FEF7B9FF0028FBD0FEF7BC
:1043100088FF022801D006287FD1FEF7BEFF424D5C
:10432000D5F888000028FBD1D5F888000028FBD1FB
:10433000B9F1000001D14FF47A703C4C6060D5F8BF
:10434000840040F48070C5F88400FFF719F8FEF788
:1043500068FF022804D13648D0F81413C907FBD1EE
:10436000FEF782FF9AF8270000070CD5206940F479
:1043700080502061206917B140F4005001E020F422
:10438000005020610AE0D5F80480206920F48050B4
:10439000206128F4FE2040EA06306860B9F1000F81
:1043A00007D0686E40F080006866206940F40060C5
:1043B0000AE0E06940F04000E061686E20F08000B3
:1043C0006866206920F400602061206940F02000C8
:1043D0002061D5F88400D5F8840020F48060C5F809
:1043E0008400FEF719FF002044F6206100BF401C46
:1043F0008842FBDB9AF82700000701D4C5F8048047
:104400000C4800E009E0016841F002010160FEF79C
:10441000BCFFE06920F04000E061BDE8F0870000EB
:104420002A450002D0020020000010400020104069
:10443000000011400000144010B586B00446CDE9DC
:104440000312084A07CA8DE80700FEF7A3FF019090
:104450008DF80840082303AA09216846FEF79FFF4C
:1044600006B010BD2045000240EA0110FFF7E6BC8F
:1044700041EA0010FFF7E2BC70B51B4C002594F830
:10448000961001EB810202EB411204EB420292789A
:104490004AB1C9B1A178002904D00021FFF7C8FBB7
:1044A00084F8955070BD81F0010101EB810202EBAF
:1044B000411204EB4202927812B984F8965070BD12
:1044C000BDE87040FFF7B4BB94F89510491CC9B221
:1044D00084F8951094F894209142F0D394F84C10FD
:1044E0000029ECD00121EBE780470020AD3A000223
:1044F0007937000200000000453B00020000000088
:104500000000000000000000E5350002000000008F
:10451000000000000000000000000000000000009B
:10452000EFBE080000000000000020100804020098
:104530000020002000200040002000006C45000208
:104540001044002004000000C43500026C45000245
:104550000000002000020000D43500027045000277
:104560001444002008040000D435000200000000BC
:020000040200F8
:04000000FEFFFFFF01
:00000001FF
