:020000040200F8
:1020000000020020B1500002F9500002FB50000213
:10201000FD500002FF5000020151000200000000CC
:10202000000000000000000000000000035100025A
:102030000551000200000000075100020951000292
:102040000B5100020B5100020B5100020B51000218
:102050000B5100020B5100020B5100020B51000208
:102060000B5100020B5100020B5100020B510002F8
:102070000B5100020B5100020B5100020B510002E8
:102080000B5100020B5100020B5100020B510002D8
:102090000B5100020B5100020B5100020B510002C8
:1020A0000B5100020B5100020B5100020B510002B8
:1020B0000B5100020B5100020B5100020B510002A8
:1020C0000B5100020B5100020B510002140003439C
:1020D00028410002F4400002FFFFFFFFFFFFFFFF67
:1020E000FFFFFFFFFFFFFFFFFFFFFFFFFFFFFFFF00
:1020F000FFFFFFFFC15A00028D57000200000000E1
:10210000595B000200000000000000000000000019
:10211000F95500020000000000000000000000006F
:10212000000000000000000000000000314100023B
:10213000014800680047000004A00002FFFFFFFF05
:10214000FFFFFFFFFFFFFFFFFFFFFFFFFFFFFFFF9F
:10215000FFFFFFFFFFFFFFFFFFFFFFFFFFFFFFFF8F
:10216000FFFFFFFFFFFFFFFFFFFFFFFFFFFFFFFF7F
:10217000FFFFFFFFFFFFFFFFFFFFFFFFFFFFFFFF6F
:1030000000200002DFF80CD000F08CF800480047E8
:10301000CD5300020002002010B5014C204700BF34
:1030200001AB02002DE9FE5F0746EFF31080EFF3DE
:103030001181EFF31282EFF313830FB443F6C850FC
:10304000C2F20000144D0560EFF30881EFF309822E
:10305000EFF31483EFF3038441608260C360046183
:10306000B81E02DA00F0DBF90FE00C480168BA1E66
:103070000CBF21F0805141F0805141F0804101604E
:103080000748016841F00C01016042F2F510C0F2FE
:1030900000000047004D28476D2200000007114046
:1030A0008400104010B545F2ED40004700BF00001D
:1030B0001648016841F0020101601548016841F4B9
:1030C00080610160134B0121586DC0F303305A6DCC
:1030D000C2F303329042F5D1491C0329F7DB0228E1
:1030E000F0DB0D4B18680028ECD00C4B186840F44E
:1030F000803018600A480047FEE7FEE7FEE7FEE77B
:10310000FEE7FEE7FEE7FEE7FEE7FEE70800004019
:103110001C0000400000104000001140440000402E
:10312000255100021CB50948009009480190054648
:10313000009C06E0E06840F0010394E8070098472F
:103140001034AC42F6D3FFF761FF0000A864000220
:10315000D86400022DE9F05F0546002092469B46A8
:1031600088460646814640241BE02846414647469D
:10317000224600F041F853465A46C01A914110D3F6
:1031800011461846224600F028F82D1A67EB010870
:103190004F4622460120002100F01FF817EB0009DE
:1031A0004E41201EA4F10104DFDC484631462A4688
:1031B0004346BDE8F09F40EA01039B0703D009E0C6
:1031C00008C9121F08C0042AFAD203E011F8013B13
:1031D00000F8013B521EF9D27047202A04DB203A46
:1031E00000FA02F1002070479140C2F1200320FA5A
:1031F00003F3194390407047202A04DB203A21FA58
:1032000002F00021704721FA02F3D040C2F12002FF
:103210009140084319467047F0B581B042F210065C
:10322000C4F210061446326800F03F05D2050CD4F3
:1032300044F63C00C2F2000000684DF68362C4F21E
:103240001B32A0FB0202900C00E01820B0FBF5F04E
:10325000022802D2012001B0F0BD3068CFB2C00513
:1032600005D444F63C00C2F20000006803E043F2DB
:103270000060C0F26E1044F24022A0FB0701C0F2D1
:103280000F020023FFF766FF2A460023FFF762FFC5
:10329000A0F5E6718D2902D24FF4600027E0A0F579
:1032A000BE718D2902D24FF4400020E0A0F5967146
:1032B0008D2902D24FF4200019E0A0F1DC018D2904
:1032C00002D24FF4000012E0A0F1A001792902D24D
:1032D0004FF4C0000BE0A0F16401652902D24FF465
:1032E000800004E03C383C2811D84FF40010FA016B
:1032F000B16942EA450204F03F0342EAC3326FF388
:10330000570110430843B061002001B0F0BD022016
:1033100001B0F0BD42F22802C4F210021168136835
:10332000002823F0010318BF0133136009D011F006
:10333000010018BF70474020C4F200000168490036
:10334000FCD5704742F21801C4F2100178B10A6846
:1033500000F00F0322F0706242EA03620A600A681A
:1033600042F000520A604A6842F4804202E04A6831
:1033700022F480424A600A68002822F0004218BF06
:1033800002F100420A60704742F21801C4F21001D3
:1033900078B10A6800F00F0322F4700242EA035287
:1033A0000A600A6842F080520A604A6842F4005299
:1033B00002E04A6822F400524A600A68002822F0BB
:1033C000804218BF02F180420A60704780B5052034
:1033D00050210122FFF720FF0120FFF79BFF05206E
:1033E000FFF7B0FF0320FFF7CFFF42F23C00C4F22B
:1033F0001000016821F4002101600520012100F086
:1034000081FE0420002100F07DFE032000F09CFDE1
:10341000002080BD44F2CC00C0F20020704744F28E
:10342000210CC0F2020C604749F6AD6CC0F2020CF0
:10343000604744F2994CC0F2020C60474DF66B2C89
:10344000C0F2010C604748F2B90CC0F2010C6047B1
:103450004FF27D6CC0F2010C60474DF2750CC0F26A
:10346000010C604744F6C91CC0F2020C604749F6E3
:10347000397CC0F2020C604749F6E11CC0F2020C34
:10348000604749F6A50CC0F2020C604749F6C17CC2
:10349000C0F2020C604749F6797CC0F2020C60472A
:1034A00049F6251CC0F2020C604747F2756CC0F269
:1034B000000C604747F28D6CC0F2000C60474CF284
:1034C000A10CC0F2010C60474BF2BD3CC0F2010CF4
:1034D000604747F2D56CC0F2000C604749F2417C6E
:1034E000C0F2020C60474AF24D2CC0F2020C604759
:1034F00049F6917CC0F2020C604744F6393CC0F2B8
:10350000020C604747F2B17CC0F2000C604742F207
:10351000AB1CC0F2000C604746F2B15CC0F2020C7A
:1035200060474CF20D4CC0F2010C604742F22D1C7A
:10353000C0F2020C604748F6E54CC0F2000C604750
:1035400048F6FD6CC0F2000C604748F6157CC0F2EE
:10355000000C604748F6857CC0F2000C604749F2D9
:10356000FD0CC0F2000C604745F2F12CC0F2020CD9
:1035700060474BF6112CC0F2000C60474EF2C97C3C
:10358000C0F2000C604745F2250CC0F2020C604707
:1035900044F6956CC0F2000C604744F6A96CC0F28A
:1035A000000C604745F2C15CC0F2000C60474AF273
:1035B000793CC0F2020C6047C906090E002806DA01
:1035C00000F00F0000F1E02080F8141D704700F1BA
:1035D000E02080F80014704702E008C8121F08C1FC
:1035E000002AFAD170477047002001E001C1121F84
:1035F000002AFBD17047000010B5FFF715FF022825
:1036000009D10748016841F003010160016D48F2EA
:10361000445211430165BDE81040FFF743BD00006F
:10362000000011402DE9F0471B4D824699462C6B56
:103630000E4690460F7A10461035FFF7FAFE042F1B
:1036400021D102281FD17089A98B88421BD9401A29
:1036500087B2002515E0207A10F02E0F0FD12079C7
:1036600000F00F0005280AD3072804D12046FFF7F1
:10367000E5FE800703D4A06840F00800A06024683D
:103680006D1CBD42E7DB4B46424631465046BDE825
:10369000F047FFF7D8BE0000F83A00202DE9FF5FA1
:1036A000DFF8E090C2F3072792469B460E4659F892
:1036B000274091F808805046FFF7BBFE054640467C
:1036C0004FF00008012819D1C4B131682068814247
:1036D00014D1616A49B140B1497D31B990F82710E0
:1036E00021F00701C91C80F827107068E16E88423C
:1036F00004D15046FFF79DFE022814D05B46524687
:1037000031460098FFF7A4FE064659F82700B0B3EB
:10371000406AA0B35046FFF78CFE854227D01A4975
:10372000022D06D014E00020C4F86C8004B0BDE87F
:10373000F09F91F8962081F8972002EB820505EB27
:10374000421201EB420282F80280012281F89820A5
:1037500001280CD1887891F84C10084307D000203C
:10376000FFF77BFE18B902215046FFF77BFE50465B
:10377000FFF75FFE022802D1204600F033FE3046FC
:10378000D4E7000000030020A04700202DE9F84FF7
:1037900000264FF0010BFFF747FEDFF8FC820546DD
:1037A000B246D8F8101041F02001C8F81010BB4CF8
:1037B000022802D0062D7CD106E0B948D0F81403C7
:1037C000C00701D1FFF753FE94F82700C00603D5C8
:1037D000022D01D1FFF750FEFFF753FE002877D0EE
:1037E000206A400874D194F82700800770D5DFF86C
:1037F000B492E168D9F80000814269D30021012028
:10380000FFF744FE064694F82700C00760D1A7687A
:10381000D9F8002097425BD3B10759D0022D03D0CD
:10382000062D01D14FF0010A9F49E3680988591A12
:10383000B94206D2D8F810300F4623F02003C8F85A
:103840001030974244D9B81AA169FFF724FE814687
:1038500006283DD3FFF724FE944800BFD0F8881017
:103860000029FBD1D0F888100029FBD1A9F1010172
:10387000C8F8041050F8841F41F480710160016899
:1038800021F400710160022D18D18648006887423A
:1038900014D9B00712D5FFF708FE78B1D8F8101088
:1038A00041F40051C8F81010D8F8101041F48051BC
:1038B00000E00DE0C8F81010022006E0D8F8101063
:1038C00021F48051C8F81010012084F8260067E028
:1038D00094F82600F0BB022D7ED194F82700C00793
:1038E00002D1A068401C77D0700775D5FFF7E2FDC4
:1038F00088B3A06808B9FFF7E2FDE168814200D211
:10390000084668490968884247D9451A45D064493C
:103910002A46D1F80C01654F3843001F3DD0096994
:10392000C9B1002300F040FBA8B1032084F82600B1
:10393000FFF7CAFDC4E90001D8F8101041F02001DA
:10394000C8F810104FF0030A2846A169FFF7A3FD3D
:10395000054601E024E020E0052800D20525FFF718
:103960009FFD00BFD7F888000028FBD1D7F888005A
:103970000028FBD1C8F8045057F8840F40F4807039
:103980003860002000F03CFC012000F039FC4FF0D2
:103990008040C16921F48061C16194F82600D8B1EA
:1039A000FFF797FDDFF80891D9F80000414DA860B6
:1039B0003F4818300068E8604FF0E0200169296155
:1039C000416969618069A861D8F81800474640F4E8
:1039D0000020C8F8180000E026E0FFF77FFD504601
:1039E000FFF720FB3448016841F002010160B8692B
:1039F000C11494F82700491C61F3820084F8270061
:103A0000B96921F40021B961410714D5AA68C9F840
:103A100000202749EA6818310A6040F020004FF082
:103A2000000B84F8270010E094F82700C0F3400052
:103A3000FFF759FD09E0FFF7F7FC022805D11B4805
:103A400050F8841F21F4806101606EB18DF800B0E0
:103A500094F82600401E8DF80100584600F004FB43
:103A600069460020FFF744FD94F82600002811D095
:103A7000FFF7DAFC022801D00628F9D1FFF7D4FCC1
:103A8000062807D1094850F8841F41F4806101607D
:103A90000A480068BDE8F88F00201040D0020020DE
:103AA00000001140CC020020C8020020000010409D
:103AB00008ED00E0A83D0020000014400000124086
:103AC00070B5214C0546002084F8260094F82700A4
:103AD00020F0200084F827001C48416E41F080014E
:103AE00041661B48016941F400610161FFF79CFCDC
:103AF000022808D11748D0F81403C00703D0062DB8
:103B000003D9062503E0FFF7B2FC032D01D9AD1E52
:103B100000E000254FF474706843E060FFF7EDFCAF
:103B2000E168814200D9E060FFF7ECFCA06094F806
:103B3000271021F0010184F8271018B941F0010085
:103B400084F82700284670BDD002002000001040F5
:103B500000201040000011404FF44873024A002139
:103B60000248FFF7D4BC00004C440020195000026A
:103B7000014890F897007047A0470020022816D20D
:103B800000EB800202EB4012094800EB4202917008
:103B9000018800290BD0B0F84A20B2FBF1F111F0F6
:103BA000FF0180F8941002D1012180F89410704731
:103BB000A04700200A4602280AD200EB800101EB50
:103BC0004010044901EB40011046C91CFFF7A4BC9A
:103BD00070470000A047002002280ED21F2A00DDF7
:103BE0001F2200EB800303EB40130448D2B200EB2A
:103BF000430042720A30FFF7DEBA7047A047002048
:103C0000022806D200EB800202EB4010014A22F8A3
:103C100010107047A047002002280FD21F2A00DD95
:103C20001F2200EB800303EB40130548D2B200EBE8
:103C3000430080F829202A30FFF7BDBA7047000002
:103C4000A04700202DE9FC4705461F480F460026E7
:103C500080F8961001EB870101EB471100EB410A58
:103C6000EC680AF1090994B109EB461898F80020AC
:103C70001F2A0CD808F1010104F10C00FFF79BFA90
:103C800098F80000A188801D60F30B11A1802468C2
:103C9000761C022EE7DB2868001D3FB102B00AF156
:103CA0000301BDE8F0470122FFF73BBC696A05F15B
:103CB00034034A7BCDE9002301F10E030A7B03495B
:103CC000FFF734FCBDE8FC87A0470020AC3B002098
:103CD0002DE9F05F984614460D4682460F4616467B
:103CE000DDF828B014E0281900EBD07040108146B0
:103CF000594642469047824503D11FFA89F0BDE8F4
:103D0000F09F504502D909F1010501E0A9F1010434
:103D1000A542E8DDBC4200DA3C46B54200DD35464E
:103D20005946204642469047504501D3A0B2E6E7A7
:103D30005946284642469047A8B2E0E700204FF493
:103D4000FA5100BF401C8842FBDB704770B50C463F
:103D50000546FFF72FFF21462846BDE87040FFF7D4
:103D6000EABB70B514460D460A4606462146FFF7E3
:103D700033FF224629463046BDE87040FFF7E0BBDE
:103D80002DE9F04116460D00074601D0002411E050
:103D900001460020FFF7F2FE39460120FFF7EEFE54
:103DA0000AE000BF04EB4400394616F81000FFF7A4
:103DB000E5FE641CAC42F5DB324629463846BDE8D8
:103DC000F041FFF7C2BB2DE9FF4F8BB01C461CAB87
:103DD000A1B293E8E00F0B98FFF712FF07A80DF1CF
:103DE0002C0C80E8000F03A81B9B80E8E80018ABB0
:103DF00093E807008DE807009CE807002346FFF7DB
:103E0000A9FB0FB0BDE8F08F70B514460D460A4609
:103E100006462146FFF700FF224629463046BDE808
:103E20007040FFF79CBB000010B50446FFF786FF0B
:103E30000349A0B288470348BDE81040004700008E
:103E400001540200E19F020010B504460E480168CB
:103E500069B1416879B1816889B14FF4B3710BA040
:103E6000FFF782FB2046BDE81040FFF782BB616888
:103E70000160094806E061684160084802E0616845
:103E8000816007486060EDE740440020726F6D5F1D
:103E900070617463682E6300C9600002DD60000217
:103EA000F16000020B480168C90711D14FEA010215
:103EB00000EB81039A60491C0829F9DB064941603F
:103EC0000649C16106490162064941620321016058
:103ED00070470000002000E080470020E938010022
:103EE000D9E70200B5EF020010B50024062160B248
:103EF000FFF762FB641CE4B2232CF7D906210846C5
:103F0000FFF75AFB06210720FFF756FB0621212069
:103F1000FFF752FB0621BDE810401620FFF74CBB0F
:103F2000084810B590F8981019B1002180F8981041
:103F300004E00020FFF77DFA022801D0002010BD28
:103F4000012010BDA04700200C4941EA00710C4837
:103F5000416141696FEA9141890701D18104C162E0
:103F6000016841F0805101600648416D8907FCD429
:103F7000416841F4FE2141605920004700102405AA
:103F8000002010400000104070B5144606460D4653
:103F900010222046FFF70FF9224629463046BDE899
:103FA0007040FFF7EBBA00002DE9F04129491646B1
:103FB00098464D6CC179C1F38401012944D1EDB318
:103FC000254AA96A914202D0244A91423CD1244B0D
:103FD000002100BF53F8212012B11468844203D09D
:103FE000491C0229F6DB2FE002292DDA506A00284D
:103FF0002BD0D1681B4F8988387FC1F30711C900C6
:10400000800001F58B71814201D90C1A00E0002477
:10401000FFF75AFAD5E902C300221CEB040453410E
:10402000251A73EB01050FD38019BD8B41EB0801F5
:10403000C5F307254FF47A76754300E004E02C19A8
:104040005A41001B914102D20020BDE8F0810120BD
:10405000FBE70000503D0020B91A0200FD1A0200E3
:1040600000030020D0020020002806D1034890F869
:104070002C03C00701D0FFF715BF70474044002054
:104080002DE9F04706461078089D98461446894663
:10409000042E0DD13E280BD1A078122808D1E71CA0
:1040A0002079FFF73DFF00280CD1FFF761FD787004
:1040B000002D07D04346224649463046AC46BDE86F
:1040C000F0476047BDE8F08738B5034C246800949A
:1040D000FFF7D6FF38BD00004044002038B5034C40
:1040E00064680094FFF7CCFF38BD00004044002016
:1040F00038B5034CA4680094FFF7C2FF38BD000038
:1041000040440020152801D0FFF73DBA0248018045
:10411000080C00F07DB80000C8020020704710B500
:10412000FFF7E2FEBDE8104040F27D7000F070B88D
:104130000649012081F82C030648054941610649DA
:1041400081610649C161FFF7ADBE00004044002017
:104150000C0F00BF80470020255600029D5600022C
:104160004FF40040AFF3008038B5024600231748F3
:104170000F21FEF7EFFF05461548022201680B20CC
:1041800000F010F94FF400700090124B0F22002144
:104190002846FFF79DFD044600900F4B40F2FF328A
:1041A00000212846FFF794FD44EA001084B2FFF78F
:1041B000C5FD0A49204688470948804701462246EE
:1041C000092000F0EFF8204638BD00000000404212
:1041D000CC400002D5630002DD63000201540200FE
:1041E000E19F020070B5054C65692B0D1B0543F47A
:1041F0008053636100F016F8656170BD00201040C7
:1042000002490A6D60F34D320A65704700001140A3
:10421000034AD1696FF30F010143D1617047000078
:10422000D00200202DE9F047170081464FF000062C
:1042300017D0DFF858C1CB1900204FF000520CF115
:1042400006055B1E35F8104014448C4204D9934295
:1042500002D31CF800201643401CC0B22246052899
:10426000F0D3DFF82CA19AF82700000701D530071A
:104270007ED1FFF706F90028FBD0FFF7D5F802281A
:1042800001D006287FD1FFF70BF9424DD5F8880001
:104290000028FBD1D5F888000028FBD1B9F1000037
:1042A00001D14FF47A703C4C6060D5F8840040F442
:1042B0008070C5F88400FFF76BF9FFF7B5F80228A6
:1042C00004D13648D0F81413C907FBD1FFF7CFF853
:1042D0009AF8270000070CD5206940F4805020612F
:1042E000206917B140F4005001E020F40050206133
:1042F0000AE0D5F80480206920F48050206128F479
:10430000FE2040EA06306860B9F1000F07D0686E01
:1043100040F080006866206940F400600AE0E069CF
:1043200040F04000E061686E20F08000686620691F
:1043300020F400602061206940F020002061D5F861
:104340008400D5F8840020F48060C5F88400FFF76D
:1043500066F8002044F6206100BF401C8842FBDB69
:104360009AF82700000701D4C5F804800C4800E043
:1043700009E0016841F002010160FFF70EF9E06910
:1043800020F04000E061BDE8F08700009664000284
:10439000D00200200000104000201040000011401A
:1043A0000000144010B586B00446CDE90312084A57
:1043B00007CA8DE80700FFF7F5F801908DF808406F
:1043C000082303AA09216846FFF7F1F806B010BDDB
:1043D0008C64000240EA0110FFF726BD41EA00109C
:1043E000FFF722BD70B51B4C002594F8961001EB29
:1043F000810202EB411204EB420292784AB1C9B148
:10440000A178002904D00021FFF71CFC84F8955006
:1044100070BD81F0010101EB810202EB411204EB5E
:104420004202927812B984F8965070BDBDE870408F
:10443000FFF708BC94F89510491CC9B284F8951090
:1044400094F894209142F0D394F84C100029ECD0C9
:104450000121EBE7A0470020C15A00028D5700025E
:1044600000000000595B0002000000000000000096
:1044700000000000F95500020000000000000000EC
:10448000000000000000000000000000EFBE080077
:10449000000000000000201008040200002000209E
:1044A0000020004000200000E064000220440020C2
:1044B00020000000D8550002E06400020000002047
:1044C00000020000E85500020065000240440020A0
:1044D00000040000E8550002F4EEFF7F0100000038
:1044E00001000000000000000000000000000000CB
:1044F00000000000000000000000000000000000BC
:00000001FF
